{
  "contractName": "DigitalEvidenceContract",
  "abi": [
    {
      "inputs": [],
      "stateMutability": "nonpayable",
      "type": "constructor"
    },
    {
      "anonymous": false,
      "inputs": [
        {
          "indexed": false,
          "internalType": "uint256",
          "name": "id",
          "type": "uint256"
        },
        {
          "indexed": false,
          "internalType": "string",
          "name": "typeUser",
          "type": "string"
        },
        {
          "indexed": false,
          "internalType": "string",
          "name": "typeIde",
          "type": "string"
        },
        {
          "indexed": false,
          "internalType": "uint256",
          "name": "identification",
          "type": "uint256"
        },
        {
          "indexed": false,
          "internalType": "string",
          "name": "names",
          "type": "string"
        },
        {
          "indexed": false,
          "internalType": "string",
          "name": "lastNames",
          "type": "string"
        },
        {
          "indexed": false,
          "internalType": "uint256",
          "name": "phone",
          "type": "uint256"
        },
        {
          "indexed": false,
          "internalType": "string",
          "name": "email",
          "type": "string"
        },
        {
          "indexed": false,
          "internalType": "string",
          "name": "dateRequest",
          "type": "string"
        },
        {
          "indexed": false,
          "internalType": "uint256",
          "name": "timeBlock",
          "type": "uint256"
        },
        {
          "indexed": false,
          "internalType": "bool",
          "name": "verified",
          "type": "bool"
        }
      ],
      "name": "createdED",
      "type": "event"
    },
    {
      "anonymous": false,
      "inputs": [
        {
          "indexed": false,
          "internalType": "uint256",
          "name": "id",
          "type": "uint256"
        },
        {
          "indexed": false,
          "internalType": "bool",
          "name": "status",
          "type": "bool"
        }
      ],
      "name": "statusED",
      "type": "event"
    },
    {
      "inputs": [],
      "name": "nextId",
      "outputs": [
        {
          "internalType": "uint256",
          "name": "",
          "type": "uint256"
        }
      ],
      "stateMutability": "view",
      "type": "function",
      "constant": true
    },
    {
      "inputs": [
        {
          "internalType": "uint256",
          "name": "",
          "type": "uint256"
        }
      ],
      "name": "recordsEvidence",
      "outputs": [
        {
          "internalType": "uint256",
          "name": "id",
          "type": "uint256"
        },
        {
          "internalType": "string",
          "name": "typeUser",
          "type": "string"
        },
        {
          "internalType": "string",
          "name": "typeIde",
          "type": "string"
        },
        {
          "internalType": "uint256",
          "name": "identification",
          "type": "uint256"
        },
        {
          "internalType": "string",
          "name": "names",
          "type": "string"
        },
        {
          "internalType": "string",
          "name": "lastNames",
          "type": "string"
        },
        {
          "internalType": "uint256",
          "name": "phone",
          "type": "uint256"
        },
        {
          "internalType": "string",
          "name": "email",
          "type": "string"
        },
        {
          "internalType": "string",
          "name": "dateRequest",
          "type": "string"
        },
        {
          "internalType": "uint256",
          "name": "timeBlock",
          "type": "uint256"
        },
        {
          "internalType": "bool",
          "name": "verified",
          "type": "bool"
        }
      ],
      "stateMutability": "view",
      "type": "function",
      "constant": true
    },
    {
      "inputs": [
        {
          "internalType": "string",
          "name": "_typeUser",
          "type": "string"
        },
        {
          "internalType": "string",
          "name": "_typeIde",
          "type": "string"
        },
        {
          "internalType": "uint256",
          "name": "_identification",
          "type": "uint256"
        },
        {
          "internalType": "string",
          "name": "_names",
          "type": "string"
        },
        {
          "internalType": "string",
          "name": "_lastNames",
          "type": "string"
        },
        {
          "internalType": "uint256",
          "name": "_phone",
          "type": "uint256"
        },
        {
          "internalType": "string",
          "name": "_email",
          "type": "string"
        },
        {
          "internalType": "string",
          "name": "_dateRequest",
          "type": "string"
        }
      ],
      "name": "createEvidence",
      "outputs": [],
      "stateMutability": "nonpayable",
      "type": "function"
    },
    {
      "inputs": [
        {
          "internalType": "uint256",
          "name": "_id",
          "type": "uint256"
        }
      ],
      "name": "changeStatus",
      "outputs": [],
      "stateMutability": "nonpayable",
      "type": "function"
    },
    {
      "inputs": [],
      "name": "getId",
      "outputs": [
        {
          "internalType": "uint256",
          "name": "",
          "type": "uint256"
        }
      ],
      "stateMutability": "view",
      "type": "function",
      "constant": true
    }
  ],
  "bytecode": "0x60806040525f805534801562000013575f80fd5b50620000ea6040518060400160405280600a815260200169457374756469616e746560b01b81525060405180604001604052806006815260200165436f6469676f60d01b815250607b6040518060400160405280600681526020016550657069746f60d01b815250604051806040016040528060058152602001642832b932bd60d91b8152506101c8604051806040016040528060068152602001657040702e636f60d01b8152506040518060400160405280600a815260200169030312f30312f323030360b41b815250620000f060201b60201c565b620007b8565b5f885111620001465760405162461bcd60e51b815260206004820152601860248201527f54797065557365722063616e6e6f7420626520656d707479000000000000000060448201526064015b60405180910390fd5b5f875111620001985760405162461bcd60e51b815260206004820152601760248201527f547970654964652063616e6e6f7420626520656d70747900000000000000000060448201526064016200013d565b5f8611620001f75760405162461bcd60e51b815260206004820152602560248201527f4964656e74696669636174696f6e206d75737420626520677265617465722074604482015264068616e20360dc1b60648201526084016200013d565b5f855111620002495760405162461bcd60e51b815260206004820152601560248201527f4e616d65732063616e6e6f7420626520656d707479000000000000000000000060448201526064016200013d565b5f8451116200029b5760405162461bcd60e51b815260206004820152601960248201527f4c6173744e616d65732063616e6e6f7420626520656d7074790000000000000060448201526064016200013d565b5f8311620002ec5760405162461bcd60e51b815260206004820152601c60248201527f50686f6e65206d7573742062652067726561746572207468616e20300000000060448201526064016200013d565b5f8251116200033e5760405162461bcd60e51b815260206004820152601560248201527f456d61696c2063616e6e6f7420626520656d707479000000000000000000000060448201526064016200013d565b5f815111620003905760405162461bcd60e51b815260206004820152601b60248201527f44617465526571756573742063616e6e6f7420626520656d707479000000000060448201526064016200013d565b6040518061016001604052805f5481526020018981526020018881526020018781526020018681526020018581526020018481526020018381526020018281526020014281526020015f151581525060015f805481526020019081526020015f205f820151815f01556020820151816001019081620004109190620005ca565b5060408201516002820190620004279082620005ca565b506060820151600382015560808201516004820190620004489082620005ca565b5060a082015160058201906200045f9082620005ca565b5060c0820151600682015560e08201516007820190620004809082620005ca565b506101008201516008820190620004989082620005ca565b50610120820151600982015561014090910151600a909101805460ff19169115159190911790555f80549080620004cf8362000696565b91905055507f498d97b514b22f87ada110a0e2fb48383259bc18498958ac7e4b703ddc491e055f548989898989898989425f6040516200051a9b9a9998979695949392919062000700565b60405180910390a15050505050505050565b634e487b7160e01b5f52604160045260245ffd5b600181811c908216806200055557607f821691505b6020821081036200057457634e487b7160e01b5f52602260045260245ffd5b50919050565b601f821115620005c557805f5260205f20601f840160051c81016020851015620005a15750805b601f840160051c820191505b81811015620005c2575f8155600101620005ad565b50505b505050565b81516001600160401b03811115620005e657620005e66200052c565b620005fe81620005f7845462000540565b846200057a565b602080601f83116001811462000634575f84156200061c5750858301515b5f19600386901b1c1916600185901b1785556200068e565b5f85815260208120601f198616915b82811015620006645788860151825594840194600190910190840162000643565b50858210156200068257878501515f19600388901b60f8161c191681555b505060018460011b0185555b505050505050565b5f60018201620006b457634e487b7160e01b5f52601160045260245ffd5b5060010190565b5f81518084525f5b81811015620006e157602081850181015186830182015201620006c3565b505f602082860101526020601f19601f83011685010191505092915050565b5f6101608d83528060208401526200071b8184018e620006bb565b9050828103604084015262000731818d620006bb565b90508a606084015282810360808401526200074d818b620006bb565b905082810360a084015262000763818a620006bb565b90508760c084015282810360e08401526200077f8188620006bb565b9050828103610100840152620007968187620006bb565b6101208401959095525050901515610140909101529998505050505050505050565b6110ff80620007c65f395ff3fe608060405234801561000f575f80fd5b5060043610610055575f3560e01c806332577541146100595780635d1ca6311461006e57806361b8ce8c14610089578063cb782a6614610091578063e8025d77146100bb575b5f80fd5b61006c610067366004610d3b565b6100ce565b005b6100766104db565b6040519081526020015b60405180910390f35b6100765f5481565b6100a461009f366004610e3a565b610502565b6040516100809b9a99989796959493929190610e94565b61006c6100c9366004610e3a565b61087b565b5f8851116101235760405162461bcd60e51b815260206004820152601860248201527f54797065557365722063616e6e6f7420626520656d707479000000000000000060448201526064015b60405180910390fd5b5f8751116101735760405162461bcd60e51b815260206004820152601760248201527f547970654964652063616e6e6f7420626520656d707479000000000000000000604482015260640161011a565b5f86116101d05760405162461bcd60e51b815260206004820152602560248201527f4964656e74696669636174696f6e206d75737420626520677265617465722074604482015264068616e20360dc1b606482015260840161011a565b5f8551116102185760405162461bcd60e51b81526020600482015260156024820152744e616d65732063616e6e6f7420626520656d70747960581b604482015260640161011a565b5f8451116102685760405162461bcd60e51b815260206004820152601960248201527f4c6173744e616d65732063616e6e6f7420626520656d70747900000000000000604482015260640161011a565b5f83116102b75760405162461bcd60e51b815260206004820152601c60248201527f50686f6e65206d7573742062652067726561746572207468616e203000000000604482015260640161011a565b5f8251116102ff5760405162461bcd60e51b8152602060048201526015602482015274456d61696c2063616e6e6f7420626520656d70747960581b604482015260640161011a565b5f81511161034f5760405162461bcd60e51b815260206004820152601b60248201527f44617465526571756573742063616e6e6f7420626520656d7074790000000000604482015260640161011a565b6040518061016001604052805f5481526020018981526020018881526020018781526020018681526020018581526020018481526020018381526020018281526020014281526020015f151581525060015f805481526020019081526020015f205f820151815f015560208201518160010190816103cd9190610fc4565b50604082015160028201906103e29082610fc4565b5060608201516003820155608082015160048201906104019082610fc4565b5060a082015160058201906104169082610fc4565b5060c0820151600682015560e082015160078201906104359082610fc4565b50610100820151600882019061044b9082610fc4565b50610120820151600982015561014090910151600a909101805460ff19169115159190911790555f8054908061048083611098565b91905055507f498d97b514b22f87ada110a0e2fb48383259bc18498958ac7e4b703ddc491e055f548989898989898989425f6040516104c99b9a99989796959493929190610e94565b60405180910390a15050505050505050565b5f60015f60015f546104ed91906110b0565b81526020019081526020015f205f0154905090565b600160208190525f91825260409091208054918101805461052290610f40565b80601f016020809104026020016040519081016040528092919081815260200182805461054e90610f40565b80156105995780601f1061057057610100808354040283529160200191610599565b820191905f5260205f20905b81548152906001019060200180831161057c57829003601f168201915b5050505050908060020180546105ae90610f40565b80601f01602080910402602001604051908101604052809291908181526020018280546105da90610f40565b80156106255780601f106105fc57610100808354040283529160200191610625565b820191905f5260205f20905b81548152906001019060200180831161060857829003601f168201915b50505050509080600301549080600401805461064090610f40565b80601f016020809104026020016040519081016040528092919081815260200182805461066c90610f40565b80156106b75780601f1061068e576101008083540402835291602001916106b7565b820191905f5260205f20905b81548152906001019060200180831161069a57829003601f168201915b5050505050908060050180546106cc90610f40565b80601f01602080910402602001604051908101604052809291908181526020018280546106f890610f40565b80156107435780601f1061071a57610100808354040283529160200191610743565b820191905f5260205f20905b81548152906001019060200180831161072657829003601f168201915b50505050509080600601549080600701805461075e90610f40565b80601f016020809104026020016040519081016040528092919081815260200182805461078a90610f40565b80156107d55780601f106107ac576101008083540402835291602001916107d5565b820191905f5260205f20905b8154815290600101906020018083116107b857829003601f168201915b5050505050908060080180546107ea90610f40565b80601f016020809104026020016040519081016040528092919081815260200182805461081690610f40565b80156108615780601f1061083857610100808354040283529160200191610861565b820191905f5260205f20905b81548152906001019060200180831161084457829003601f168201915b505050506009830154600a9093015491929160ff1690508b565b5f818152600160208181526040808420815161016081019092528054825292830180549193928401916108ad90610f40565b80601f01602080910402602001604051908101604052809291908181526020018280546108d990610f40565b80156109245780601f106108fb57610100808354040283529160200191610924565b820191905f5260205f20905b81548152906001019060200180831161090757829003601f168201915b5050505050815260200160028201805461093d90610f40565b80601f016020809104026020016040519081016040528092919081815260200182805461096990610f40565b80156109b45780601f1061098b576101008083540402835291602001916109b4565b820191905f5260205f20905b81548152906001019060200180831161099757829003601f168201915b50505050508152602001600382015481526020016004820180546109d790610f40565b80601f0160208091040260200160405190810160405280929190818152602001828054610a0390610f40565b8015610a4e5780601f10610a2557610100808354040283529160200191610a4e565b820191905f5260205f20905b815481529060010190602001808311610a3157829003601f168201915b50505050508152602001600582018054610a6790610f40565b80601f0160208091040260200160405190810160405280929190818152602001828054610a9390610f40565b8015610ade5780601f10610ab557610100808354040283529160200191610ade565b820191905f5260205f20905b815481529060010190602001808311610ac157829003601f168201915b5050505050815260200160068201548152602001600782018054610b0190610f40565b80601f0160208091040260200160405190810160405280929190818152602001828054610b2d90610f40565b8015610b785780601f10610b4f57610100808354040283529160200191610b78565b820191905f5260205f20905b815481529060010190602001808311610b5b57829003601f168201915b50505050508152602001600882018054610b9190610f40565b80601f0160208091040260200160405190810160405280929190818152602001828054610bbd90610f40565b8015610c085780601f10610bdf57610100808354040283529160200191610c08565b820191905f5260205f20905b815481529060010190602001808311610beb57829003601f168201915b50505091835250506009820154602080830191909152600a9283015460ff16151560409283015261014084018051158082525f888152600190935291839020909301805460ff19169091179055905190519192507f82ec7c8fbcae453c45b4ed065081cc4b9c46ecbf6f9b22c05c769d4fc1b270c891610c92918582521515602082015260400190565b60405180910390a15050565b634e487b7160e01b5f52604160045260245ffd5b5f82601f830112610cc1575f80fd5b813567ffffffffffffffff80821115610cdc57610cdc610c9e565b604051601f8301601f19908116603f01168101908282118183101715610d0457610d04610c9e565b81604052838152866020858801011115610d1c575f80fd5b836020870160208301375f602085830101528094505050505092915050565b5f805f805f805f80610100898b031215610d53575f80fd5b883567ffffffffffffffff80821115610d6a575f80fd5b610d768c838d01610cb2565b995060208b0135915080821115610d8b575f80fd5b610d978c838d01610cb2565b985060408b0135975060608b0135915080821115610db3575f80fd5b610dbf8c838d01610cb2565b965060808b0135915080821115610dd4575f80fd5b610de08c838d01610cb2565b955060a08b0135945060c08b0135915080821115610dfc575f80fd5b610e088c838d01610cb2565b935060e08b0135915080821115610e1d575f80fd5b50610e2a8b828c01610cb2565b9150509295985092959890939650565b5f60208284031215610e4a575f80fd5b5035919050565b5f81518084525f5b81811015610e7557602081850181015186830182015201610e59565b505f602082860101526020601f19601f83011685010191505092915050565b5f6101608d8352806020840152610ead8184018e610e51565b90508281036040840152610ec1818d610e51565b90508a60608401528281036080840152610edb818b610e51565b905082810360a0840152610eef818a610e51565b90508760c084015282810360e0840152610f098188610e51565b9050828103610100840152610f1e8187610e51565b6101208401959095525050901515610140909101529998505050505050505050565b600181811c90821680610f5457607f821691505b602082108103610f7257634e487b7160e01b5f52602260045260245ffd5b50919050565b601f821115610fbf57805f5260205f20601f840160051c81016020851015610f9d5750805b601f840160051c820191505b81811015610fbc575f8155600101610fa9565b50505b505050565b815167ffffffffffffffff811115610fde57610fde610c9e565b610ff281610fec8454610f40565b84610f78565b602080601f831160018114611025575f841561100e5750858301515b5f19600386901b1c1916600185901b17855561107c565b5f85815260208120601f198616915b8281101561105357888601518255948401946001909101908401611034565b508582101561107057878501515f19600388901b60f8161c191681555b505060018460011b0185555b505050505050565b634e487b7160e01b5f52601160045260245ffd5b5f600182016110a9576110a9611084565b5060010190565b818103818111156110c3576110c3611084565b9291505056fea2646970667358221220f938ea1802499558a25822c9e6fb23d3f32396788befb5bbf3b9d81992192fb264736f6c63430008160033",
  "immutableReferences": {},
  "source": "// SPDX-License-Identifier: MIT\npragma solidity >=0.8.22;\n\ncontract DigitalEvidenceContract {\n\n    uint256 public nextId=0; //contador registros\n\n    constructor(){\n        createEvidence(\"Estudiante\",\"Codigo\", 123, \n            \"Pepito\", \"Perez\", 456, \n            \"p@p.co\", \"01/01/2000\");\n    }\n\n    struct DataEvidence{\n        uint256 id;\n        string typeUser;\n        string typeIde;\n        uint256 identification;\n        string names;\n        string lastNames;\n        uint256 phone;\n        string email;\n        string dateRequest;\n        uint256 timeBlock;\n        bool verified;\n        }\n\n    mapping (uint256 => DataEvidence) public recordsEvidence;\n\n    //evidence add records\n    event createdED(\n        uint256 id,\n        string typeUser,\n        string typeIde, uint256 identification,\n        string names, string lastNames,\n        uint256 phone, string email,\n        string dateRequest,\n        uint256 timeBlock,\n        bool verified\n    );\n//event verified state\nevent statusED(uint256 id, bool status);\n//------------------------------------------------------\n//-- create user\n    function createEvidence(\n        string memory _typeUser,\n        string memory _typeIde,\n        uint256 _identification,\n        string memory _names,\n        string memory _lastNames,\n        uint256 _phone,\n        string memory _email,\n        string memory _dateRequest\n        ) public{\n            // Validate input data\n            require(bytes(_typeUser).length > 0, \"TypeUser cannot be empty\");\n            require(bytes(_typeIde).length > 0, \"TypeIde cannot be empty\");\n            require(_identification > 0, \"Identification must be greater than 0\");\n            require(bytes(_names).length > 0, \"Names cannot be empty\");\n            require(bytes(_lastNames).length > 0, \"LastNames cannot be empty\");\n            require(_phone > 0, \"Phone must be greater than 0\");\n            require(bytes(_email).length > 0, \"Email cannot be empty\");\n            require(bytes(_dateRequest).length > 0, \"DateRequest cannot be empty\");\n\n            recordsEvidence[nextId] = DataEvidence(\n                nextId, _typeUser, _typeIde,\n                _identification, _names, \n                _lastNames, _phone, \n                _email, _dateRequest,\n                block.timestamp, false);\n            nextId++;  \n            //call event\n            emit createdED(nextId, _typeUser, _typeIde,\n                _identification, _names, \n                _lastNames, _phone, \n                _email, _dateRequest,\n                block.timestamp, false);          \n    }\n//update state user\n    function changeStatus(uint256 _id) public{\n        DataEvidence memory _recordE = recordsEvidence[_id];//obtener registro\n        _recordE.verified = !_recordE.verified;//cambiar estado\n        recordsEvidence[_id].verified = _recordE.verified; //actualizar estado registro\n        emit statusED(_id, _recordE.verified);//event\n    }\n    //sin uso\n    function getId() public view returns (uint256) {\n        return recordsEvidence[nextId-1].id;\n    }\n}\n",
  "sourcePath": "/home/pablo/DAPP_CoC_Ethereum/contracts/contracts/DigitalEvidenceContract.sol",
  "compiler": {
    "name": "solc",
    "version": "0.8.22+commit.4fc1097e.Emscripten.clang"
  },
  "schemaVersion": "3.4.16",
  "updatedAt": "2024-06-24T02:04:51.759Z",
  "networkType": "ethereum",
  "devdoc": {
    "kind": "dev",
    "methods": {},
    "version": 1
  },
  "userdoc": {
    "kind": "user",
    "methods": {},
    "version": 1
  }
}